:020000040800F2
:10000000E01E0020B1010008F7250008F5210008D6
:10001000F5250008450600085135000800000000DD
:10002000000000000000000000000000F92F0008A0
:100030008107000800000000532E000895300008DA
:10004000CB010008CB010008CB010008CB01000860
:10005000CB010008CB010008F1070008CB01000824
:10006000CB010008CB010008CB010008CB01000840
:10007000CB010008CB010008CB010008CB01000830
:10008000C5060008CB010008CB01000800000000F5
:10009000000000000000000000000000CB0100088C
:1000A000CB010008CB010008CB010008CB01000800
:1000B000CB01000839310008CB010008CB01000852
:1000C000CB010008CB010008CB010008CB010008E0
:1000D000CB0100083135000845350008000000005C
:1000E000CB010008CB010008CB0100080000000094
:1000F000000000000000000000000000CB0100082C
:1001000000000000CB010008CB010008CB01000873
:1001100000000000000000000000000000000000DF
:10012000CB010008CB010008D1060008CB01000874
:10013000CB010008000000000000000000000000EB
:10014000000000000000000000000000CB010008DB
:10015000CB010008CB010008CB010008CB0100084F
:10016000CB010008CB0100080000000000000000E7
:10017000000000000000000000000000000000007F
:1001800000000000CB01000800000000000000009B
:10019000CB010008CB010008DFF810D000F08EF88A
:1001A00000480047353C0008AFF30080E01E002007
:1001B0000648804706480047FEE7FEE7FEE7FEE701
:1001C000FEE7FEE7FEE7FEE7FEE7FEE71D3100087B
:1001D000990100082DE9F05F0546002092469B46F4
:1001E00088460646814640241BE02846414647464D
:1001F000224600F053F853465A46C01A914110D394
:1002000011461846224600F03AF82D1A67EB01080D
:100210004F4622460120002100F031F817EB00097B
:100220004E41201EA4F10104DFDC484631462A4637
:100230004346BDE8F09FD2B201E000F8012B491E11
:10024000FBD270470022F6E710B513460A46044673
:100250001946FFF7F0FF204610BD30B505462A4687
:100260000B4612F8010B13F8014B08B1A042F8D06D
:100270001CB1002802D06D1CF1E7284630BD202AB1
:1002800004DB203A00FA02F1002070479140C2F1ED
:10029000200320FA03F3194390407047202A04DB1F
:1002A000203A21FA02F00021704721FA02F3D040EF
:1002B000C2F120029140084319467047064C074D91
:1002C00006E0E06840F0010394E807009847103426
:1002D000AC42F6D3FFF764FF903F0008B03F000840
:1002E000464910B54A6822F440324A604A68436879
:1002F0001A434A6001684A6822F480724A600168C1
:100300004A68036942EA03224A6001684A6822F0A7
:1003100040724A6001684A6883681A434A6001680B
:100320008A6822F400628A6001688A68C3681A4396
:100330008A60816A6FF07062D14201688A6822F037
:1003400070628A6001688A680CD0836A1A438A6086
:1003500001688A6822F040528A6001688A68C36A2C
:100360001A4301E022F040528A6001688A6822F054
:1003700002028A6001688A68037E42EA43028A6058
:1003800090F82010002901684A680FD042F40062FA
:100390004A6001684A6822F460424A6001684A681B
:1003A000174C436A04EB43331A4301E022F4006222
:1003B0004A600168CA6A22F47002CA620168CA6AA5
:1003C000838B104C04EB03531A43CA6201688A689A
:1003D00022F400728A6001688A6890F8303042EA3C
:1003E00043228A6001688A6822F480628A60016818
:1003F0008A68406942EA8020886010BD002301407D
:1004000000E0FFFF0000F0FF2DE9F05F0024524EF6
:10041000074625464FF001094FF4FA6AA0464FF40B
:10042000FA7B052D6AD2DFE805F00321455F7000F5
:10043000641C3078E4B238B90E2001F017FF504642
:1004400000F0D6FD86F8009044A003F09DF802F07D
:10045000F1F860BB012002F0CFF840BB86F80080C5
:1004600041A003F091F8002401251CE0641C3078C1
:10047000E4B238B90F2001F0F9FE504600F0B8FDA3
:1004800086F800903CA003F07FF802F0D3F870B932
:10049000022002F0B1F850B986F8008032A003F0D3
:1004A00073F800240225584600F0A2FDB9E702F0D7
:1004B000E7FD23E035A003F067F802F04BF90500F3
:1004C0000DD086F8008035A003F05EF8284602F0D3
:1004D000D7FD00242546584600F08AFDA8E736A03F
:1004E00003F052F8032509E038A003F04DF802F0BC
:1004F000BDF9C8B93BA003F047F80425584600F001
:1005000077FD142C8DD1BDE8F09F3CA003F03CF8A2
:100510003DA003F039F84FF4967039468742FCD27B
:10052000022002F0BDF908B10025C0E7032001F068
:100530009DFE504600F05CFD37A003F025F806480C
:10054000801C02F0D7F9394871880088BDE8F05F57
:10055000411A37A003F018B81C000020C7EBB0B454
:10056000CAD6D6B80D0A0000D6B8CEC6D5FDC8B7D3
:100570002F722F6E00000000C7EBD4D9B0B4D2BBED
:10058000B4CECAD6D6B80D0A00000000B6D4B1C8A1
:1005900032B4CED6B8CEC62F722F6E00B6D4B1C844
:1005A000CAA7B0DC2CC7EBD6D8D0C2B0B4CAD6D656
:1005B000B82F722F6E00000032B4CED6B8CEC6D29D
:1005C000BBD1F9B5C42F722F6E000000C9FAB3C9B0
:1005D000D2BBB8F6D6B8CEC6C4A3B0E52F722F6E84
:1005E00000000000C9FAB3C9D6B8CEC6C4A3B0E5AE
:1005F000B3C9B9A62F722F6E00000000C7EBCAE482
:10060000C8EB49440D0A0000303D3C204944203CE1
:100610003D3239390D0A0000CCEDBCD3D6B8CEC678
:10062000B3C9B9A62F722F6E00000000C41A0020B3
:10063000CAA3D3E0D6B8CEC6B8F6CAFD3A25640D33
:100640000A000000FEE72DE9F0410E460746154678
:100650000421052000F02AF80021012002F07AFF91
:1006600080210A2002F000FD002405E0395D092008
:1006700002F070FF641CE4B2B442F7D303210120FE
:1006800002F068FFFF24052002F0E4FB641E14F072
:10069000FF0401D04007F6D5222002F0DBFB2870D2
:1006A000212002F0D7FB6870BDE8F08170B50C46E0
:1006B000054602F0CFFB20EA04012846BDE8704061
:1006C00002F048BF014800F021BB00001C020020DE
:1006D000014800F01BBB0000BC010020016818238A
:1006E000CAB2103AB2FBF3F2054B6FF30901032AC9
:1006F0009B5CC36500D9091D8165084670470000F1
:10070000283F000810B5014600208B698A6A4FF027
:10071000C07453B1B3F5005F15D072B1012A0CD08B
:10072000022A0AD0032A09D104E01AB1012A06D00C
:10073000022A03D1C96AC90100D5012010BDC96AC6
:10074000A142FAD010BD002AF7D0012AF2D0022A25
:10075000F3D0032AF3D010BD30B50468256825F422
:1007600080252560046863608368402B036803D09C
:1007700099600068C26030BD9A600068C16030BD99
:100780007047000010B532220549064801F086FC8A
:1007900004480068C16841F01001C16010BD00004C
:1007A000C40200203C01002038B50F4C20680168CD
:1007B000C943C90616D4016840680090204601F07C
:1007C000F8FA606B00684068C0F500610748418036
:1007D00001210170CA0200F108012046BDE838403D
:1007E00001F05CBC38BD00003C010020BC020020D0
:1007F000012000F011BC000021283CD2DFE800F00D
:1008000011131517191B1D1F212325273B3B3B3BAC
:1008100027293B3B3B2B3B3B2D2F3133353B3B3794
:10082000390016A0704716A0704719A070471DA088
:10083000704721A0704728A070472FA0704735A0AF
:10084000704742A0704744A0704747A070474AA035
:1008500070474DA0704750A0704758A070475BA0EC
:1008600070475DA0704760A0704764A0704768A0A3
:1008700070476AA070476CA0704700004F4B0000A3
:10088000CAFDBEDDB0FCBDD3CAD5B4EDCEF30000C9
:10089000B4ABB8D0C6F7C9CFC3BBD3D0CAD6D6B8CD
:1008A00000000000C2BCC8EBD6B8CEC6CDBCCFF1AC
:1008B000CAA7B0DC00000000D6B8CEC6CDBCCFF1D0
:1008C000CCABB8C9A1A2CCABB5ADB6F8C9FAB2BB36
:1008D000B3C9CCD8D5F70000D6B8CEC6CDBCCFF1C1
:1008E000CCABCAAAA1A2CCABBAFDB6F8C9FAB2BBCE
:1008F000B3C9CCD8D5F70000D6B8CEC6CDBCCFF1A1
:10090000CCABC2D2B6F8C9FAB2BBB3C9CCD8D5F712
:1009100000000000D6B8CEC6CDBCCFF1D5FDB3A344
:10092000A3ACB5ABCCD8D5F7B5E3CCABC9D9A3A8AC
:10093000BBF2C3E6BBFDCCABD0A1A3A9B6F8C9FA04
:10094000B2BBB3C9CCD8D5F700000000D6B8CEC62C
:10095000B2BBC6A5C5E40000C3BBCBD1CBF7B5BDC8
:10096000D6B8CEC600000000CCD8D5F7BACFB2A218
:10097000CAA7B0DC00000000C9BEB3FDC4A3B0E547
:10098000CAA7B0DC00000000C7E5BFD5D6B8CEC608
:10099000BFE2CAA7B0DC0000BBBAB3E5C7F8C4DA4F
:1009A000C3BBD3D0D3D0D0A7D4ADCABCCDBCB6F8CE
:1009B000C9FAB2BBB3C9CDBCCFF10000B6C1D0B447
:1009C00020464C41534820B3F6B4ED00CEB4B6A84F
:1009D000D2E5B4EDCEF30000CEDED0A7BCC4B4E6C1
:1009E000C6F7BAC500000000BCC4B4E6C6F7C9E843
:1009F000B6A8C4DAC8DDB4EDCEF30000BCC7CAC2E5
:100A0000B1BED2B3C2EBD6B8B6A8B4EDCEF30000F7
:100A1000D6B8CEC6BFE2C2FA00000000B5D8D6B73D
:100A2000B4EDCEF300000000C4A3BFE9B7B5BBD856
:100A3000C8B7C8CFC2EBD3D0CEF3000070470000D8
:100A400078B50024009490F83C20012A19D00122A6
:100A500080F83C200A6807230568092A13D9EE6844
:100A60000A3A02EB420293409E43EE600B788A689A
:100A70000A3B03EB43039A400368DD682A43DA60CC
:100A800010E0022078BD2E6902EB420293409E43A3
:100A90002E610B788A6803EB43039A4003681D6953
:100AA0002A431A614A681F23072A13D205686E6B0E
:100AB000521E02EB820293409E436E630A8893B2F9
:100AC0000A79521E02EB820293400268556B2B4357
:100AD000536327E005680D2A12D22E6BD21F02EB5A
:100AE000820293409E432E630B790A88DB1F92B2E9
:100AF00003EB83039A4003681D6B2A431A6311E0DA
:100B0000EE6A0D3A02EB820293409E43EE620B794D
:100B10000A880D3B92B203EB83039A400368DD6AB7
:100B20002A43DA621B4B0568194A9D420AD10D68B7
:100B3000122D07D1556825F400055560556845F418
:100B40008005556005689D421DD1134D0B68AB4271
:100B500001D0112B17D1536823F4800353605368DD
:100B600043F4000353600968A9420CD10B490C4AB5
:100B70000968B1FBF2F101EB8101490000E0491E77
:100B800000910029FBD180F83C40002078BD000096
:100B90000023014000200140120000100C00002042
:100BA00040420F0070B504004FF0000503D0206CE8
:100BB000002610B107E0012070BD204600F01CF8AF
:100BC000666484F83C60206CC00610D4206C20F46D
:100BD000885040F0020020642046FFF781FB6664E5
:100BE000206C20F0020040F00100206400E00125AC
:100BF00084F83C60284670BD10B586B004461421C8
:100C00006846FFF71FFB1149206888421CD1104835
:100C10000021026842F480720260006800F4807073
:100C200005900B481438026842F001020260006827
:100C300000F001000590022000900320CDE90101A1
:100C40006946044800F0F4F906B010BD00200140E8
:100C500044380240000002402DE9F0410446876D0F
:100C600000F0BAFA064694F835000025022806D0AE
:100C70008020606584F834500120BDE8F081206850
:100C8000016821F0160101602068416921F08001AE
:100C90004161206C08B9A06C20B12068016821F086
:100CA000080101602068016821F0010101600BE08A
:100CB00000F092FA801B052806D92020606504F810
:100CC000345F03206070D8E720680068C007EFD168
:100CD00094F85C103F208840B86004F8345F01202D
:100CE00060700020C9E790F83510022903D08021F8
:100CF000416501207047052180F8351000680168C2
:100D000021F0010101600020704700002DE9F84347
:100D100004464FF00009CDF8009063484FF4165197
:100D2000A56D0068B0FBF1F72E6894F85C10082000
:100D300000FA01F131420FD021680A6852070BD541
:100D40000A6822F004020A6094F85C108840A860E7
:100D5000606D40F00100606594F85C104FF0010890
:100D600008FA01F0304208D021684969090604D523
:100D7000A860606D40F00200606594F85C1004208B
:100D80008840304208D021680968890704D5A860E6
:100D9000606D40F00400606594F85C10102088409D
:100DA000304218D021680968090714D5A860206866
:100DB0000168490304D50068000308D5A16C07E069
:100DC0000168C90503D4016821F008010160216CA4
:100DD00009B12046884794F85C10202088403042B2
:100DE00031D021680968C9062DD5A86094F835006E
:100DF00005282068016806D0490347D5006800032C
:100E00001DD4616C1CE021F016010160206841696D
:100E100021F080014161206C08B9A06C20B12068EC
:100E2000016821F00801016094F85C103F208840BF
:100E3000A86084F8349084F83580216D1FE0E16B60
:100E400009B120468847606D00282BD0606DC0072F
:100E500014D0052084F835002068016821F00101D4
:100E600001600098401C0090B84203D820680068D8
:100E7000C007F6D184F8349084F83580E16C0029FD
:100E800010D001B02046BDE8F04308470168C9050D
:100E9000D5D4016821F01001016084F8349084F801
:100EA0003580CCE7BDE8F8830C0000202DE9F04147
:100EB000044600F091F906465CB1002584F83450F0
:100EC000022084F835002068016821F001010160EA
:100ED0000DE00120BDE8F08100F07EF9801B0528BF
:100EE00005D920206065032084F83500F2E72068EA
:100EF0000068C007F0D12268116820480140D4E999
:100F000001031843D4E90336334318436369184394
:100F1000A3691843E3691843236A18430843616AC5
:100F2000042903D1D4E90B13194308431060206846
:100F30004069666A20F0070130460E430127042805
:100F40000CD1A06A0643E06A40B12046FFF7DAFB05
:100F500020B14020606584F83570BAE720684661AA
:100F60002046FFF7BBFB94F85C203F219140816055
:100F7000656584F835700020ACE700003F8010F014
:100F80002DE9F0410446866D90F8340000250128D3
:100F90000DD0012084F8340094F835700020012F22
:100FA00007D084F8340002252846BDE8F0810220ED
:100FB000FBE7022784F8357060652046FFF7CCFB1D
:100FC00094F85C103F208840B0602068016841F0D0
:100FD00016010160206C20B12068016841F0080111
:100FE00001602068016841F001010160DCE7000058
:100FF00070B5044600F0F0F80546601C02D00448C5
:101000000078044400F0E8F8401BA042FAD370BD19
:101010000000002070470000044910B50A68024231
:1010200002D00860FFF7F6FF10BD0000143C01403D
:101030002DE9F84F00224FF0010803254FF00F0E65
:101040000B6808FA02F42340A34271D14E68012EC6
:1010500005D0022E03D0112E01D0122E15D1866894
:10106000570005FA07FC26EA0C06D1F80CC00CFA6A
:1010700007FC4CEA060CC0F808C04668A6430C7989
:10108000C4F30014944034434460C668570005FA22
:1010900007FC8C6826EA0C06BC403443C4604C68EC
:1010A000022C01D0122C13D1D40800EB8404A346E7
:1010B000D4F8209054074FEAD46A0EFA0AF629EAC7
:1010C00006090E6906FA0AF646EA0906CBF8206018
:1010D00004680E7924EA0C0406F00306BE40264399
:1010E00006604C68E40056D52E4C266846F48046CF
:1010F0002660246822F0030604F4804400942A4CFD
:101100003444A446D4F808489607370F0EFA07F679
:10111000B443264EB04201D1002615E0244EB04221
:1011200001D1012610E0234EB04202D102260BE08D
:1011300031E0214EB04201D1032605E01F4EB042FE
:1011400001D1042600E00726BE402643CCF80868FB
:101150001B4E34684F689C43FF0300D51C4334602A
:10116000174E361D34684F689C43BF0300D51C439F
:101170003460134E083634684F689C43FF0200D534
:101180001C4334600E4E0C3634684F689C43BF02DB
:1011900000D51C433460521C102AFFF451AFBDE847
:1011A000F88F000044380240003001400000024047
:1011B0000004024000080240000C024000100240FF
:1011C000003C01400069084000D0012070470AB18E
:1011D000816170470904FBE701488068704700009F
:1011E0000000002002488168027811448160704745
:1011F000000000200B4810B5016841F40071016047
:10120000016841F480610160016841F4807101600E
:10121000032000F089F8002000F006F800F03EF806
:10122000002010BD003C024010B5014688B00022ED
:101230001D2000F059F81D2000F048F81348002444
:10124000016841F002010160006805A900F0020098
:101250000690684600F014F900F032F90C4940009D
:10126000B0FBF1F10C480B4A491E026040F2E73234
:10127000C0E90324C0E9011400F0ADFC10B1012065
:1012800008B010BD044800F0C2FCF9E74038024045
:1012900040420F00000400407C0200200A4808B5CC
:1012A000016841F480410160006800F480400090D2
:1012B0000548001F016841F080510160006800F09E
:1012C0008050009008BD000044380240002809DB2F
:1012D00000F01F02012191404009800000F1E02050
:1012E000C0F8001170470000F0B40E4B1B680C46AC
:1012F000C3F30223C3F10705042D00D90425191DEA
:10130000072901D2002300E0DB1E012606FA05F1C1
:10131000491E214099409E40761E16403143F0BC44
:1013200002F042B90CED00E0064900F0070208683F
:101330004FF6FF03184040EA0220034A10430860BA
:10134000704700000CED00E00000FA052DE9F047C1
:101350000E46050065D0DFF81481D8F80000F7B21A
:1013600000F00F00B04207D288F80070D8F80000F3
:1013700000F00F00B04254D128683D4C810712D5CF
:10138000400703D5206840F4E0502060287800072B
:1013900003D5206840F4604020602068A96820F0F0
:1013A000F000084320602878C0072DD030496868D5
:1013B0000839012812D0022813D0032811D0096857
:1013C000890700292DDA216821F0030101432160FA
:1013D000FFF702FF814641F2883A0EE0096889036F
:1013E000EFE709688901ECE7FFF7F6FEA0EB0901DA
:1013F000514502D90320BDE8F0872068696800F0F4
:101400000C00B0EB810FEFD1D8F80010404601F08E
:101410000F01B14207D90770006800F00F00B04219
:1014200001D00120E7E72878400705D52068E96862
:1014300020F4E050084320602878000706D5206893
:10144000296920F4604040EAC100206000F058F8AB
:101450002168084AC1F30311515CC840064908607D
:1014600006480068FFF7E0FE0020C4E7003C0240A9
:1014700008380240303F00080C0000200400002023
:101480000F2202600C4A136803F0030343601368E1
:1014900003F0F0038360136803F4E053C360126841
:1014A0004FF4E05303EAD20202610448006800F0FE
:1014B0000F0008607047000008380240003C0240FE
:1014C0000448054900680968044AC1F38221515C57
:1014D000C84070470C00002008380240403F000818
:1014E0000448054900680968044AC1F34231515C67
:1014F000C84070470C00002008380240403F0008F8
:10150000154810B5006810F00C02144813D01449A7
:10151000042A0FD0082A0ED10F4C241F22682368FA
:1015200002F03F025B0207D52068C0F38810A0FBE1
:10153000010106E0084610BD2168C1F38811A1FB36
:1015400000010023FEF746FE2168C1F30141491C5A
:101550004900B0FBF1F010BD083802400024F4004F
:1015600040787D012DE9F84F04006ED02078DFF837
:101570003C93C007A9F104054AD009F104000168B1
:10158000C1F38101012908D00068C0F3810002285D
:101590000AD1D9F80000400206D52868800337D563
:1015A00060680028E1D033E06068B0F5803F10D07B
:1015B000B0F5A02F286810D020F48030286028686B
:1015C00020F4802028606068A8B1FFF705FE064679
:1015D0000DE0286840F48030F4E740F48020286073
:1015E000F7E700BFFFF7F8FD801B642873D8286871
:1015F0008003F7D50CE0FFF7EFFD064605E000BFDE
:10160000FFF7EAFD801B6428F0D828688003F7D430
:101610002078DFF89C8280074FF0000A3ED5A3486F
:10162000001D016811F00C0F08D00068C0F38100A4
:1016300002280BD1D9F80000400207D4286880079F
:1016400016D5E068012800D112E02BE1E068B8B1BE
:101650000120C8F80000FFF7BFFD064605E000BF07
:10166000FFF7BAFD801B0228C0D828688007F7D58D
:101670002868216920F0F80040EAC10028600DE0E8
:10168000C8F800A0FFF7A8FD064604E0FFF7A4FD98
:10169000801B02281FD828688007F7D4207800070D
:1016A00022D5824E83486169703671B10121016093
:1016B000FFF792FD074604E0FFF78EFDC01B0228EE
:1016C00009D830688007F7D50EE0C0F800A0FFF712
:1016D00083FD074605E082E0FFF77EFDC01B022880
:1016E0007DD830688007F7D42078400768D5DFF8C8
:1016F000BCB100270BF13C0BDBF80000C0000BD4A1
:10170000DBF8001041F08051CBF80010DBF800004E
:10171000012700F080500090674E3068C00510D45B
:10172000306840F480703060FFF756FD009005E0AF
:10173000FFF752FD0099401A022850D83068C005C2
:10174000F6D55A4EA0686C3601280FD005283068AF
:1017500010D020F001003060306820F004003060CC
:10176000A068B8B1FFF738FD00900FE0306840F096
:101770000100F4E740F004003060F7E7FFF72CFDCC
:101780000099411A41F28830814266D8306880075A
:10179000F4D50EE0FFF720FD009007E0FFF71CFDF9
:1017A0000099411A41F28830814256D8306880074A
:1017B000F4D42FB1DBF8001021F08051CBF80010E9
:1017C000A069C8B33949091D0968C1F3810102291B
:1017D0004AD00228504607D0C8F8600000E03CE03C
:1017E000FFF7FAFC04463BE04746C8F86000FFF705
:1017F000F3FC064605E000BFFFF7EEFC801B022865
:101800002BD828688001F7D4D4E907010843A16ADE
:101810002A4A490802EB0141626A41EA82110843FF
:1018200094F82C1040EA0161C9F8001001203866D4
:10183000FFF7D2FC044606E036E000BFFFF7CCFC21
:10184000001B022809D828688001F7D52CE000BFCA
:10185000FFF7C2FC001B022802D90320BDE8F88F65
:1018600028688001F4D41FE00128F7D0D9F80000DF
:10187000E26900F48001914214D1226A00F03F0134
:1018800091420FD147F6C071626A0140914209D17D
:10189000A26A00F44031914204D1E16A00F0706024
:1018A000884201D00120D9E70020D7E70438024060
:1018B00000004742800E4742007000400000FFFFDA
:1018C00070B5040005D00025A56294F8510010B150
:1018D00006E0012070BD84F85050204600F030F83A
:1018E000022084F851002068016821F04001016065
:1018F000D4E901010843D4E90312114308436169A3
:101900000843218B01F400710843E1690843216A0F
:101910000843A16A084321680860A069042101EA1C
:101920001040616A0843216848602068C16921F459
:101930000061C1616565012084F85100002070BD1F
:1019400070B586B0044614216846FEF77BFC234E32
:10195000226800212248022303240525B2421AD11D
:101960001F4A1432166846F480561660126802F454
:1019700080520592026842F001020260006802AAE9
:1019800000F00100059082E83200E020CDE900037C
:10199000694614481DE0144EB2421CD1104A103260
:1019A000166846F480461660126802F4804205927A
:1019B000026842F002020260006802AA00F002001F
:1019C000059082E832004FF44440CDE900036946B7
:1019D0000648FFF72DFB06B070BD00000030014047
:1019E000303802400000024000380040000402404D
:1019F0002DE9F84F044690F8500000270A9E1D4636
:101A000092468B464FF0010901280ED0012084F840
:101A10005000FFF7E1FB804694F85100616801280F
:101A20000CD0B1F5827F07D102E00220BDE8F88F2B
:101A3000A16809B9042801D00227C2E0BBF1000F58
:101A400027D0BAF1000F24D01DB394F85100042818
:101A500002D0052084F8510000206065C4F838A049
:101A6000E587A587C4F830B0E586A5862064606464
:101A700020680168490603D4016841F04001016013
:101A8000E068B0F5006F606805D0E8B3012D46D07E
:101A90007FE0012795E008B1012D39D1206B216845
:101AA0000088C860206B801C2063E08E401EE086AA
:101AB0002EE02068816889070FD5E18E69B1B9F100
:101AC000010F0AD1216B0988C160206B801C206343
:101AD000E08E401EE0864FF0000920688168C9074B
:101AE0000CD0E18F51B1C068A16B0880A06B801C45
:101AF000A063E08F401EE0874FF00109FFF76CFB09
:101B0000A0EB0800B04200E009E001D3701C50D106
:101B1000E08E0028CDD1E08F0028CAD13FE0206BB5
:101B2000216800780873206B401C2063E08E401E03
:101B3000E0862EE02068816889070FD5E18E69B1C3
:101B4000B9F1010F0AD1216B09780173206B401C98
:101B50002063E08E401EE0864FF000092068816817
:101B6000C9070CD0E18F51B1C068A16B0870A06BA0
:101B7000401CA063E08F401EE0874FF00109FFF793
:101B80002BFBA0EB0800B04202D3701C01D010E088
:101B90007EB1E08E0028CDD1E08F0028CAD1424628
:101BA0003146204601F072F928B1012720206065F6
:101BB00007E0032705E0A06818B92068C1688068BD
:101BC0000090012084F85100002084F8500038462D
:101BD0002CE77047704710B5040003D094F83D001F
:101BE00010B107E0012010BD002084F83C00204621
:101BF00000F00CF8022084F83D00211D206801F05F
:101C0000A1FA012084F83D00002010BD7047016852
:101C1000CA6842F00102CA600068816801F00701E9
:101C2000062903D0016841F00101016000207047DE
:101C3000704770B50446006801694FF00005C9435C
:101C4000890715D4C168C943890711D4E91E016108
:101C500001202077206880698007204602D0FFF7A6
:101C6000E7FF04E000F098F8204600F096F82577AA
:101C700020680169C943490717D4C168C9434907A6
:101C800013D46FF00401016102202077206880697D
:101C900010F4407F204602D0FFF7CAFF04E000F0B6
:101CA0007BF8204600F079F8257720680169C94360
:101CB000090716D4C168C943090712D46FF0080197
:101CC0000161042020772068C0698007204602D087
:101CD000FFF7AEFF04E000F05FF8204600F05DF88B
:101CE000257720680169C943C90617D4C168C9436B
:101CF000C90613D46FF01001016108202077206815
:101D0000C06910F4407F204602D0FFF791FF04E045
:101D100000F042F8204600F040F82577206801697D
:101D2000C943C90708D1C168C943C90704D1891E7D
:101D30000161204600F032F820680169C9430906B4
:101D400009D4C168C943090605D46FF08001016157
:101D50002046FFF73EFF20680169C943490609D4C0
:101D6000C168C943490605D46FF0400101612046AE
:101D700000F01EF820680169C94389060BD4C168C8
:101D8000C943890607D46FF0200101612046BDE8F0
:101D90007040FFF71FBF70BD704770470068034970
:101DA000884201D1FFF71EBA7047000000040040CE
:101DB000704710B504460068416994F83920C1F3B2
:101DC000C011212A0BD151B1416921F0800141613B
:101DD000206B08B1FEF740FF204601F05DFA206855
:101DE000416994F83A20C1F38011222A0BD151B1F4
:101DF000416921F040014161606B08B1FEF72CFFA1
:101E0000204601F03BFA002010BD704770B5026813
:101E100004461068D168536910F00F0F52D003F0D8
:101E2000010501F490762E435FD0C20705D0CA05A4
:101E300003D5E26B42F00102E263420705D5DA07FF
:101E400003D0E26B42F00202E263820705D5DA07B3
:101E500003D0E26B42F00402E263020707D501F00F
:101E600020022A4303D0E26B42F00802E263E26BF5
:101E7000002A33D0800604D5880602D5204601F01A
:101E800014FA20684069E16BC0F38010090700D4A0
:101E900028B3204601F0F2F92068416949061AD5B5
:101EA000416921F040014161606BA0B11B490165AE
:101EB000606BFEF718FF002810D0606B016DBDE865
:101EC00070400847830610D58B060ED52046BDE826
:101ED000704001F0EAB92046FFF797FF70BD204639
:101EE000FFF793FF0020E06370BD030606D50B06E5
:101EF00004D52046BDE8704001F0B6BA4006F3D5DF
:101F00004806F1D5D168204621F04001D16020215A
:101F100084F8391000F06DF970BD0000DD31000863
:101F200070B5040004D094F83900002510B106E023
:101F3000012070BD84F83850204600F023F824209A
:101F400084F839002068C16821F40051C16020463E
:101F500001F0F6F92068016921F4904101612068DF
:101F6000416921F02A0141612068C16841F40051B2
:101F7000C160E563202084F8390084F83A0000202D
:101F800070BD00002DE9F04387B006461421684675
:101F9000FEF758F9DFF8E88002223168002439485A
:101FA0000323394D97064FF0070C4FF480694145E4
:101FB0002FD134491431D1F8008048F01008C1F80D
:101FC0000080096801F010010591016841F00101EC
:101FD00001600068694600F00100059058028DE834
:101FE0001500CDE9033C2846FFF722F8284D274885
:101FF0002860C5E90174C5E903496C61AC61EC6115
:102000002C6228466C6233E07563AE6307B0BDE8AE
:10201000F083DFF880804145F8D11A491031D1F8BA
:10202000008048F40038C1F80080096801F40031EC
:102030000591016841F0010101600068694600F006
:10204000010005900C208DE81500CDE9033C2846E1
:10205000FEF7EEFF0E4D104860352860C5E90174AB
:10206000C5E903496C61AC61EC612C6228466C6285
:10207000FEF71CFF0028C7D0FEF7E0FCC4E7000015
:10208000001001403038024000000240406402402D
:10209000BC0100200044004088600240F8B50446BE
:1020A00090F83A0020283CD1C1B3BAB394F8380074
:1020B000012836D0012084F83800A162A2850025CD
:1020C000E563222084F83A00636B1748D863636B9A
:1020D00016481864636B1648D864606B1346056530
:1020E0000846666B216802463046091DFEF748FF28
:1020F000206801684168009184F83850C16841F453
:102100008071C1602068416941F00101416120682E
:10211000416941F0400141610020F8BDFFE7012025
:10212000FBE70220F9E700003732000873320008AD
:10213000ED310008704770472DE9F843044690F8E8
:1021400039001F4616460D46202850D1B5B1AEB114
:1021500094F8380001284AD0012084F838004FF064
:102160000008C4F83C80212084F83900FFF734F8D7
:10217000A6848146E68484F8388026E00120BDE804
:10218000F883E08C401EE084A0684B46B0F5805F89
:102190004FF000024FF080012046009703D001F07D
:1021A00094F9E8B90DE001F090F9C8B928882168E0
:1021B000C0F308004860206908B16D1C05E0AD1C43
:1021C00003E0216815F8010B4860E08C0028D8D1A5
:1021D0004B46002240212046009701F076F908B1D5
:1021E0000320CCE7202084F839000020C7E7022034
:1021F000C5E77047FEE700002DE9FC410546EF20EA
:102200008DF8000001208DF801001648164C00687A
:1022100004F10806010E8DF80210010C8DF8031070
:10222000010A8DF804108DF8050007208DF80600CE
:1022300000278DF8077027700CE00120FEF7D8FE0C
:102240002078012806D1277069463046FEF705F848
:10225000002804D16D1E2D042D0CEED10020BDE808
:10226000FC81000018000020BC0200202DE9F04194
:10227000234E0446012251023046FEF7A8FF0122F8
:1022800080213046FEF7A3FF002280213046FEF772
:102290009EFF0520FEF7ACFE04F0010000254FF480
:1022A000167700284FF001024FF0800130460BD026
:1022B000FEF78DFF384601F017FC002280213046E2
:1022C000FEF785FFC8200AE0FEF781FFC82001F075
:1022D0000BFC002280213046FEF779FF384601F0E2
:1022E00003FC64086D1CEDB204F00100082DD8D386
:1022F0003046BDE8F04101228021FEF768BF0000B2
:102300000004024010B5412801D0FF2010BD082173
:102310000846FEF7CBF93D21112001F01BF986217B
:10232000172001F017F97F21262001F013F91E2153
:102330002D2001F00FF900212C2001F00BF98D2147
:102340002A2001F007F93E212B2001F003F901209A
:10235000FEF74EFE00F010FB002010BD7FB50024FC
:10236000144800940194029411490394C0E90014A4
:1023700084600461047680F820400F49C0E90A14A3
:102380000125C561C46080F830404561FEF70AFC54
:1023900008B1FEF753FB0095CDE9015469460548A5
:1023A000FEF74EFB002801D0FEF748FB7FBD000082
:1023B00000200140440000200100000F094808B53A
:1023C000016841F480010160016801F4800100911D
:1023D000016841F400110160006800F400100090F1
:1023E00008BD0000303802402DE9F04387B01421C9
:1023F0006846FDF727FF34480024016841F00401D6
:102400000160016801F004010591016841F00101DA
:102410000160016801F001010591016841F00201CC
:1024200001600068294F00F002004FF460450590FC
:10243000012229463846FEF7CAFEDFF8948048F2AA
:102440001006012231464046FEF7C1FEDFF88490B7
:10245000012241F201014846FEF7B9FE01224FF484
:1024600020714846FEF7B3FE00950125CDE90154E1
:10247000694638460394FEF7DBFD17486946CDE907
:10248000005040460295FEF7D3FD0096CDE9015479
:10249000694640460394FEF7CBFD41F2812000904F
:1024A000CDE90154694648460394FEF7C1FD4FF457
:1024B0009C70CDE90004694648460294FEF7B8FDD9
:1024C00007B0BDE8F0830000303802400008024049
:1024D000000002400004024000001110104810B536
:1024E0000E4901604FF48271416000218160C1603A
:1024F0004FF400720161C0E905123022C0E90721E2
:10250000416281620A21C162FFF7DAF9002803D033
:10251000BDE81040FEF792BA10BD00000030014047
:102520008C000020104810B50E4901604FF48271F4
:10253000416000218160C1604FF400720161C0E917
:1025400005123022C0E90721416281620A21C1627D
:10255000FFF7B6F9002803D0BDE81040FEF76EBAC9
:1025600010BD000000380040E40000200C4810B509
:102570000A4901604FF4E1314160002181600C2281
:10258000C160C0E904128161C161FFF7C9FC002884
:1025900003D0BDE81040FEF751BA10BD0010014055
:1025A0003C0100200C4810B50A4901604FF4E131AC
:1025B0004160002181600C22C160C0E90412816188
:1025C000C161FFF7ADFC002803D0BDE81040FEF765
:1025D00035BA10BD004400407C01002001B54FF623
:1025E000FF73012269460248FFF7A6FD08BD0000FF
:1025F0003C010020FEE7704710B5044600F020FDC6
:1026000000F0FCFC0120FFF7E9FF042000F021FDB1
:102610000220FFF7E3FF2046FFF7E0FFE01D00F098
:1026200005FD4FF4FA60FFF7E7FD08B1407A10BDF1
:10263000FF2010BD10B500F003FD00F0DFFC01200D
:10264000FFF7CCFF032000F004FD0120FFF7C6FFD9
:10265000052000F0EBFC4FF4FA60FFF7CDFD08B168
:10266000407A10BDFF2010BD70B5044600F0E8FCB4
:1026700000F0C4FC0120FFF7B1FF0020FFF7AEFF20
:102680000020FFF7ABFFC820FEF7B2FC0F49087827
:1026900001280AD10A7A0020EF2A05D14A7A012AB4
:1026A00002D18A7B072A02D00870012070BD4A7BC4
:1026B0008B7A0D7B02EB0362CB7A1B0403EB0523C1
:1026C0001A4422600870002070BD0000BC02002087
:1026D0002DE9F0411E4614460D46074600F0B0FCB9
:1026E00000F08CFC0120FFF779FF082000F0B1FC1E
:1026F0001B20FFF773FF3846FFF770FF280AFFF72C
:102700006DFFE8B2FFF76AFF200AFFF767FFE0B24C
:10271000FFF764FF07EB1520E9B2084400EB142033
:10272000E1B20844243000F081FC4FF4FA60FFF776
:1027300063FD58B1C27A837A417A02EB0322328078
:10274000427B007B02EB0020708000E0FF21084606
:10275000BDE8F08110B500F073FC00F04FFC0120E3
:10276000FFF73CFF032000F074FC0320FFF736FF67
:10277000072000F05BFC4FF4FA60FFF73DFD08B165
:10278000407A10BDFF2010BD70B5044600F058FC23
:1027900000F034FC0120FFF721FF032000F059FC7A
:1027A0000F20FFF71BFF132000F040FC4FF47A705E
:1027B000FFF722FDC8B1C17B827B457A01EB022184
:1027C00089B22180427CA270427D837C067D02EB2F
:1027D0000362C37C1B0403EB06231A446260C27DC0
:1027E0002272407E60725DB100E0FF252846FEF750
:1027F00003F801460BA000BF00F0C6FE284670BDDE
:102800000AA000F0C1FEA1780EA000F0BDFE11A04C
:10281000616800F0B9FE607A4FF4165110FB01F1C7
:102820000FA0E9E70D0A2573000000000D0AC4A3FC
:10283000BFE9D7EEB4F3D6B8CEC6C8DDC1BF3D25DB
:10284000640000000D0AB6D4B1C8B5C8BCB63D25B9
:10285000640000000D0AB5D8D6B73D257800000009
:102860000D0AB2A8CCD8C2CA3D25640010B500F04C
:10287000E7FB00F0C3FB0120FFF7B0FE032000F0F0
:10288000E8FB0520FFF7AAFE092000F0CFFB4FF47C
:10289000FA60FFF7B1FC08B1407A10BDFF2010BD0F
:1028A00070B50C46054600F0CBFB00F0A7FB0120FD
:1028B000FFF794FE062000F0CCFB0620FFF78EFE0B
:1028C0002846FFF78BFE200AFFF788FEE0B2FFF7ED
:1028D00085FE05EB1420E1B208440D3000F0A6FBA4
:1028E0004FF4FA60FFF788FC08B1407A70BDFF2012
:1028F00070BD000070B5054600F0A2FB00F07EFB45
:102900000120FFF76BFE032000F0A3FB1D20FFF763
:1029100065FE212000F08AFB4FF4FA60FFF76CFCA3
:1029200038B1C17A827A447A01EB022129805CB104
:1029300000E0FF242046FDF75FFF014605A000BF31
:1029400000F022FE204670BDC17A807A01EB0021A2
:1029500002A0F5E70D0A2573000000000D0AD3D090
:10296000D0A7D6B8CEC6B8F6CAFD3D256400000093
:1029700003211420FDF79ABE10B5142000F06AFA66
:10298000800705D10321BDE81040142000F06CBB86
:1029900010BD70B50646082188B000240846FDF732
:1029A00085FE00210D2000F0D5FD80210E20FDF7D1
:1029B0007DFE93208DF8040020208DF8050006A8E8
:1029C00001AB0090022219460C2000F040F80500EF
:1029D0000DD1002101A8425C7254425C491C544054
:1029E000C9B20429F7D3405CA04200D0FE25802163
:1029F0000E2000F039FB08B0284670BD30B587B016
:102A00008DF804008DF80510002001A9145C0D1844
:102A1000401CC0B2AC700628F8D300200C181A5C19
:102A2000401CC0B222720628F8D306A800900B46BC
:102A30000C220E2000F00BF8040004D1082000F056
:102A400009FA000700D4FE2407B0204630BD2DE966
:102A5000FF5F0027FE25DDF838A016468B4681462D
:102A6000B8460C2805D0B9F10E0F05D11227102059
:102A700001E077273020804647F08001022000F0F7
:102A800069FD80210420FDF711FE0021012000F0E6
:102A900061FD80210A2000F0E7FA002405E01BF820
:102AA0000410092000F056FD641CB442F7D34946D7
:102AB000012000F04FFDB9F10C0F03D180210D2052
:102AC00000F0D2FA4FF41676042000F0C3F9044661
:102AD000761E04D0E00702D114EA080FF4D080215A
:102AE0000D20FDF7E3FD36B1062000F0B3F910F03C
:102AF0001B0F0CD0FE2580210C2000F0B5FA002120
:102B0000012000F027FD04B02846BDE8F09F002515
:102B10003C40E00700D0FF25B9F10C0FEBD10A20B3
:102B200000F098F904460C2000F094F910F007002A
:102B30004FEAC40101D008390144CAF8001024B199
:102B4000122C04D91224002603E00124FBE70026FE
:102B500005E0092000F07EF903998855761CA6420D
:102B6000F7D3C8E700B587B050208DF804000020E7
:102B70008DF805000DF10602022101A8FDF763FDA5
:102B800006A801AB0090042219460C20FFF75FFF56
:102B900007B0002000BD30B587B00D4630218DF85C
:102BA000041001AC8DF8050002212046A21CFDF79F
:102BB0004AFD06A801AB0090042219460C20FFF73D
:102BC00046FF10B90699902902D0FE2007B030BD0B
:102BD0000023E15CE9545B1CDBB2102BF9D3F5E771
:102BE00030B50C460546082187B00846FDF75EFD66
:102BF00007210D2000F0AEFC0321142000F034FA70
:102C000006A801AB00908DF80450012219460C2053
:102C1000FFF71DFF10B90699102902D0FE2007B05A
:102C200030BD9DF8041021709DF805106170F6E725
:102C300070B50122354D940321462846FEF7C7FAA8
:102C40000A20FEF7D5F9002221462846FEF7BFFAF2
:102C50000A20FEF7CDF9012221462846FEF7B7FAF1
:102C60000A20FEF7C5F94FF47A742046FEF7C0F942
:102C70002046FEF7BDF9012000F0ECF8014624A043
:102C800000F082FC0F21012000F064FC02E023A090
:102C900000F07AFC272000F0DDF88828F7D13D21EC
:102CA000112000F057FC112000F0D4F801461EA0BE
:102CB00000F06AFC1E212D2000F04CFC2D2000F0BD
:102CC000C9F801461CA000F05FFC00212C2000F098
:102CD00041FC8D212A2000F03DFC3E212B2000F0FC
:102CE00039FC2B2000F0B6F8014618A000F04CFC8F
:102CF0004021152000F02EFC152000F0ABF8014615
:102D000017A000F041FC002070BD00000008024048
:102D10003078253032780D0A000000006875616E49
:102D200078696E67000000004D6F64655265673D0D
:102D3000253032780D0A00005452656C6F61645280
:102D400065674C3D253032780D0A0000545072659D
:102D50007363616C65725265673D2530327800009F
:102D600054784175746F5265673D253032780000A4
:102D700010B588B093218DF8041070218DF80510DE
:102D800000218DF80A1001AA5418435CA370445C1A
:102D90009DF80A30491C6340C9B28DF80A300429F5
:102DA000F2D3072101A8D21DFDF74DFC08210846EA
:102DB000FDF77CFC06A801AB0090092219460C2007
:102DC000FFF745FE10B90699182900D0FE2008B07B
:102DD00010BD70B588B00D46A0218DF8041001AC6F
:102DE0008DF8050002212046A21CFDF72CFC06AE42
:102DF00001AB042219460C200096FFF728FE28BBE1
:102E00000698042822D19DF8040000F00F000A283B
:102E10001CD10020295C2154401CC0B21028F9D3D9
:102E200005AA102101A8FDF70EFC01AB12221946DC
:102E30000C200096FFF70BFE40B90699042905D136
:102E40009DF8041001F00F010A2900D0FE2008B0FF
:102E500070BD704770B50C4D044600221021284605
:102E6000FEF7B5F97E2000EA440040F0800000F053
:102E7000A7F800F037F80446012210212846FEF793
:102E8000A6F9204670BD00000000024038B5044697
:102E90001248134B0068B0FBF3F04FF47A735843B9
:102EA00000906068B0F5827F0DD10B460092002241
:102EB0008021204600F03AF870B1606D40F02000AB
:102EC0006065032038BD009830B1401E0090206836
:102ED0008068C0430006F6D5002038BD0C000020F5
:102EE00000366E010EB500208DF808004FF6FF7019
:102EF0000090012301AA02A90548FEF779FD18B147
:102F000004A000F041FB0EBD9DF804000EBD0000C2
:102F10008C0000207370692073656E642072656197
:102F200064206661696C0D0A000000002DE9F04123
:102F30001D4617460E460446DDF8188008E0681C5A
:102F400006D0FEF749F9A0EB0800A8420BD255B114
:102F50002068806836EA000030D00020B842EED108
:102F60000020BDE8F0812068416821F0E001416067
:102F70006068B0F5827F0BD1A068B0F5004F02D039
:102F8000B0F5806F04D12068016821F04001016034
:102F9000A06AB0F5005F09D12068016821F40051F2
:102FA00001602068016841F400510160012084F84B
:102FB0005100002084F850000320D2E70120CDE723
:102FC00001B582B04FF6FF700090012301AA02A95B
:102FD0000448FEF70DFD002802D003A000F0D4FA4B
:102FE0000EBD00008C0000207370692073656E6454
:102FF000206661696C0D0A007047000010B50A4C2C
:103000002068000EFFF7EAFA2068C0F30740FFF7D8
:10301000E5FA2088C0F30720FFF7E0FA2078BDE842
:103020001040FFF7DBBA00001800002010B504467E
:10303000000AFFF7D3FAE0B2BDE81040FFF7CEBABE
:1030400010B5EF20FFF7CAFABDE810400120FFF7E6
:10305000C5BA10B50446C0F30720FFF7BFFAE0B2C7
:10306000BDE81040FFF7BABA70B50C460546FFF749
:10307000F1FE40EA04012846BDE8704000F06ABA5B
:10308000014601A000F080BA656E737572653D253A
:10309000640D0A007047000070B592B03021684698
:1030A000FDF7D0F814210CA8FDF7CCF8194800253D
:1030B000016841F080510160006800F0805011907B
:1030C0001548016841F4404101600068022400F4A1
:1030D0004040119001200390102004900094069429
:1030E0000820CDE9075009A964200F2681E8510086
:1030F0006846FEF737FAE002CDE90E504FF4A050D3
:10310000CDE90C64109003210CA8FEF71FF912B052
:1031100070BD000040380240007000400548016862
:1031200041F47001016003494FF00060803908608C
:103130007047000088ED00E00148FEF77ABD00000E
:103140007C020020F0B502681D4B1E4C9F031E4DF3
:103150001E4E984207D0B84205D0A04203D0A842E4
:1031600001D0B04204D122F0700C4A6842EA0C024D
:10317000984210D0B8420ED0A0420CD0A8420AD03B
:10318000B04208D0124CA04205D0124CA04202D04E
:10319000114CA04203D122F44074CA6822434C6906
:1031A00022F08002224302608A68C2620A68826258
:1031B000984201D10969016301214161F0BD00001C
:1031C000000001400004004000080040000C0040E6
:1031D00000400140004401400048014010B5806BB0
:1031E0000021C185C184FEF710FE10BD70B5846B4F
:1031F0002068406994F83910C0F3C01000252129D7
:1032000004D118B1E584204600F046F820684069F2
:1032100094F83A10C0F38010222904D118B1E58542
:10322000204600F02BF8E06B40F01000E0632046F1
:10323000FEF7EBFD70BD10B50146806B09680968AB
:10324000C90513D40021C1850168CA6822F48072BF
:10325000CA6001684A6922F001024A6101684A694C
:1032600022F040024A61202180F83A10FEF762FF06
:1032700010BD10B5806BFEF75EFF10BD0168CA6817
:1032800022F49072CA6001684A6922F001024A6120
:10329000202180F83A1070470168CA6822F0C00205
:1032A000CA60202180F83910704710B590F83A10A4
:1032B000222901D0022010BD8168B1F5805F11D0B4
:1032C0000169002901681FD0496801F07F03816A04
:1032D0004A1C82620B70C18D491E0904090CC1850C
:1032E00018D02BE00269816A002A0268526805D072
:1032F000D2B20A80816A491C8162ECE7C2F30802FB
:103300000A80816A891CF7E74A68816A4B1C8362DC
:103310000A70E0E70168CA6822F02002CA6001680A
:10332000CA6822F48072CA6001684A6922F0010208
:103330004A61202180F83A10FEF7FCFE002010BD03
:103340002DE9F041044600680169E26821F440512A
:10335000114301612169A068E26908436169114371
:1033600008432168CA6849F20C639A430243CA6061
:1033700020684169A26921F4407111434161E0690B
:10338000192764253226B0F5004F354A35492068A3
:103390004FF0000806D0884201D0904236D1FEF7A7
:1033A0009FF835E0884201D0904202D1FEF798F8AC
:1033B00001E0FEF785F861684A18A0FB070148EBB9
:1033C0000803FCF707FF0146B0FBF5F00201B1FB73
:1033D000F5F06FF01803584301EB800006EBC000D6
:1033E000B0FBF5F000F0F80002EB4002B1FBF5F0A5
:1033F000584301EB800006EBC000B0FBF5F000F095
:103400000700216810448860BDE8F081FEF758F895
:1034100061688B0F8A00A0FB0701FCF7DBFE014609
:10342000B0FBF5F06FF01802504301EB800006EBA3
:103430000010B0FBF5F000F0F002B1FBF5F002EB8C
:103440000012B1FBF5F06FF01803584301EB800058
:1034500006EB0010B0FBF5F000F00F00D1E7000024
:10346000001401400010014090F83910212901D0CA
:10347000022070478168B1F5805F016A0BD04A1C59
:103480000262026809785160C18C491E0904090C66
:10349000C1840ED017E009880268C1F308015160A9
:1034A00001690029016A02D0491C0162ECE7891C0C
:1034B000FBE70168CA6822F08002CA600068C16840
:1034C00041F04001C160002070472DE9F04198466D
:1034D00017460E460446069D1DE0681C1BD02DB104
:1034E000FDF77AFEA0EB0800A84214D92068C16855
:1034F00021F4D071C1602068416921F0010141616E
:10350000202084F8390084F83A00002084F838003C
:103510000320BDE8F0812068006836EA000004D08E
:103520000020B842D9D00020F3E70120F9E70000DD
:1035300010B5FDF739F9BDE810400148FEF766BC4B
:103540003C0100200148FEF761BC00007C01002026
:10355000FEE7000070B50B4D0E4604460022102118
:103560002846FDF734FE7E2000EA4400FFF728FDE0
:103570003046FFF725FD2846BDE8704001221021A6
:10358000FDF725BE000002400FB4054B10B503A99E
:10359000044A029800F028F810BC5DF814FB000003
:1035A0001D3C0008400000200907090E002804DB2C
:1035B00000F1E02080F80014704700F00F0000F1E7
:1035C000E02080F8141D704702E008C8121F08C1EF
:1035D000002AFAD170477047002001E001C1121F94
:1035E000002AFBD1704700002DE9FF4F8DB00F4638
:1035F0000546002606E025280BD0DDE90F1290478E
:103600006D1C761C28780028F5D111B03046BDE835
:10361000F08F0024A246A1460122E94900E00443BC
:1036200015F8013F203B02FA03F00842F7D1287851
:103630002A2810D06FF02F022878A0F13001092934
:1036400014D80AEB8A0102EB410144F0020400EBBA
:10365000010A6D1CF0E701CF5FEA000A03D544F4CC
:103660000054CAF1000A44F002046D1C28782E2888
:1036700017D115F8010F44F004042A280ED06FF07A
:103680002F022878A0F1300109290AD809EB890115
:1036900002EB410100EB01096D1CF2E757F8049BB6
:1036A0006D1C28786C280FD006DC4C2817D06828B1
:1036B0000DD06A2814D104E0742810D07A280FD1D4
:1036C0000DE044F400140AE044F4801401E044F4F2
:1036D00040146978814202D104F580146D1C6D1C80
:1036E00028786E281ED00CDC632830D004DC00283B
:1036F0008BD0582811D19FE0642867D069280CD15D
:1037000064E073282DD004DC6F2872D0702804D1B7
:1037100094E075286ED078286DD0DDE90F129047BF
:10372000761C4BE1C4F30250022806D0032809D0CE
:10373000042801CF09D0066040E101CFF117C0E9AC
:1037400000613BE101CF068038E1067036E117F8F1
:10375000040B8DF8000000208DF80100EB460120DD
:1037600003E057F804BB4FF0FF3061074FF0000152
:1037700002D40DE008F10101884649450FDA804581
:10378000F8DB1BF808100029F4D108E008F101016A
:1037900088468142FADB1BF808100029F6D1DDE9E2
:1037A0000F23AAEB08008146214600F031F930448E
:1037B00000EB080604E0DDE90F121BF8010B90474F
:1037C000B8F10108F7D221464846F2E00A21C4F3D5
:1037D00002524FF0000B0891022A04D001CFC1170A
:1037E000032A09D00AE0FF1D27F00707F7E80201C6
:1037F00008E02CE01EE01FE000B2C117042A01D14E
:1038000040B2C117021E71F1000206DA0023D0EBAC
:10381000030063EB01012D2202E0220504D52B22D7
:103820008DF82420012203E0E20701D02022F7E7EF
:10383000904653E00A210BE0102109E010214FF0DF
:10384000000B44F004044FF00809089103E008213C
:103850004FF0000B0891C4F30252022A04D001CFAA
:103860000021032A06D006E0FF1D27F00707F7E82E
:10387000020103E080B2042A00D1C0B24FF0000878
:1038800022072BD52A78702A07D0DDF820C08CF0CB
:10389000100C5CEA0B0C05D00EE040228DF82420C1
:1038A000012208E050EA010306D030238DF82430CD
:1038B0008DF8252002229046089B83F0080353EAE6
:1038C0000B030BD150EA010201D1620706D5302269
:1038D0008DF824204FF00108A9F101092A78582A0F
:1038E00004D038A20B9208AA0A920BE03AA2F9E798
:1038F0005B46089AFCF76EFC0B9B9B5C0A9A521E77
:103900000A92137050EA0102F2D10A98ADEB00005E
:1039100000F1200B600702D524F4803401E04FF061
:103920000109D94502DDA9EB0B0000E0002000EB06
:103930000B0141440890AAEB010AE00306D4DDE93B
:103940000F232146504600F063F806444FF000096B
:1039500008E009A911F80900DDE90F12904709F103
:103960000109761CC145F4DBE0030CD5DDE90F232A
:103970002146504600F04CF8064404E0DDE90F1201
:1039800030209047761C0899481E08900029F5DCE5
:1039900008E00A980A990078491C0A91DDE90F129B
:1039A0009047761CBBF10001ABF1010BF1DC214625
:1039B0005046DDE90F2300F019F806446D1C21E69E
:1039C00009280100303132333435363738396162F5
:1039D00063646566000000003031323334353637B9
:1039E0003839414243444546000000002DE9F0418A
:1039F000044600251E461746880404D405E03946CF
:103A00002020B0476D1C641EF9D52846BDE8F08122
:103A10002DE9F041044600251E469046C80301D515
:103A2000302700E02027880404D505E041463846C9
:103A3000B0476D1C641EF9D52846BDE8F081000032
:103A400070B51F4C4FF4FA656078E8B101282CD0AE
:103A5000022829D101211B48FDF7B4FB20B11AA08F
:103A6000FFF792FD00F038F91548801C00F0A0F92E
:103A7000012819D1FEF7FAFB2846FDF7B9FABDE88F
:103A8000704015A0FFF780BD0D48801C00F090F934
:103A9000012809D1FEF7EAFB2846FDF7A9FA0EA096
:103AA000FFF772FD0120607070BD0120FCF7ACFCD7
:103AB0000D20FEF7DBFB2846FDF79AFA0220F2E71D
:103AC0001000002000000240D3D0CAD6D6B8B0B44F
:103AD000CFC20D0A00000000BBF1C8A1BFA8BAC543
:103AE000B3C9B9A60000000000EBC0014FF0E02010
:103AF000416101210161002181610269D30701D087
:103B0000D203FAD501618161704700007CB5FCF7F2
:103B100039FE00F0FDF921A0FFF736FD26A0FFF7E2
:103B200033FD4FF4C87465000BE02046FDF760FAE2
:103B300026A0FFF729FD2846FDF75AFA27A0FFF730
:103B400023FD2A48FEF790FD0028EED128A0FFF7BC
:103B50001BFD2A48FEF7CEFE294C284D207010B1DF
:103B6000FFF78EFA03E0298826A0FFF70DFD29480C
:103B7000FEF70AFE207018B1BDE87C40FFF780BA5E
:103B80002448027A4168CDE90012437A827800889D
:103B90002988411A2048FFF7F7FC7CBD4153363095
:103BA00038D6B8CEC6CAB6B1F0C4A3BFE9B2E2CA2D
:103BB000D4B3CCD0F2000000D3EB4153363038C43C
:103BC000A3BFE9CED5CAD62E2E2E2E00CEB4BCEC85
:103BD000B2E2B5BDC4A3BFE921212100B3A2CAD47A
:103BE000C1ACBDD3C4A3BFE92E2E2E001800002007
:103BF000CDA8D1B6B3C9B9A6212121001E0000204D
:103C000010000020B6C1BFE2D6B8CEC6B8F6CAFDD5
:103C10003D256400C41A0020483F000813B54FF644
:103C2000FF73012269460248FEF786FA00981CBD20
:103C30007C010020FDF7DEFAFFF72EFAFEF7D4FB39
:103C4000FEF7BCFBFEF78AFBFEF748FCFEF76AFCBA
:103C5000FEF78CFCFEF7A6FC002211460620FDF7BD
:103C600043FB0620FDF732FB002211462520FDF71D
:103C70003BFB2520FDF72AFB002211461020FDF713
:103C800033FB1020FDF722FB002211462620FDF712
:103C90002BFB2620FDF71AFB002211463A20FDF7E8
:103CA00023FB3A20FDF712FB04A0FFF76DFCFFF7A2
:103CB0002DFF00BFFFF7C4FEFCE700004153363084
:103CC00038D6B8CEC6CAB6B1F0C4A3BFE9B2E2CA0C
:103CD000D4B3CCD0F200000038B5FEF7ABFC00281E
:103CE00022D11AA0FFF750FC0120FEF785FCC8B9CD
:103CF0001AA0FFF749FC6B464FF496720021012091
:103D0000FEF7E6FC04004FF4FA650ED0092C0BD147
:103D10000620FEF7ABFA2846FDF76AF913A0FFF775
:103D200033FC2046FFF7ACF938BD0520FEF79EFABC
:103D30002846FDF75DF912A0FFF726FCBDF802202A
:103D4000BDF8001013A0FFF71FFC38BDBBF1C8A1E0
:103D5000CDBCCFF1B3C9B9A620000000C9FAB3C9E0
:103D6000CCD8D5F7B3C9B9A620000000C3BBD3D0C7
:103D7000CBD1CBF7B5BDD6B8CEC60D0A000000003A
:103D8000CBD1CBF7D6B8CEC6B3C9B9A62F722F6E9A
:103D9000000000004D617463682049443A256420A6
:103DA000204D617463682073636F72653A25640007
:103DB00070B5002435495220FEF712FF002862D169
:103DC00032480178042904D0022906D0082908D0F5
:103DD0000CE0407850B92EA006E0407830B930A011
:103DE00002E0407810B932A0FFF7CEFB2748801CD4
:103DF000FEF7CFFD002845D131A0FFF7C5FB234DCD
:103E00000024AD1C31A0295DFFF7BEFB641CE4B2A9
:103E1000042CF7D32FA0FFF7B7FB1C48801CFEF73C
:103E2000A7FF04462FA0FFF7AFFB5CBB174C012098
:103E3000641EE31C207007211A1D6020FEF7DEFDC2
:103E400000BB207804F10D018006000EFEF7C1FFD3
:103E5000207827498006000EFEF79DFE90B925A028
:103E6000FFF792FB224D002418A0295DFFF78CFB81
:103E7000641CE4B2102CF7D3FEF774FE10B921A035
:103E8000FFF782FB0124204670BD000021000020C6
:103E9000BFA8B5C4C0E0D0CD3A5335300D0A0000FC
:103EA000BFA8B5C4C0E0D0CD3A5337300D0A0000EA
:103EB000BFA8B5C4C0E0D0CD3A580D0A000000003C
:103EC0006963BFA8BAC53A0D0A00000025303278F0
:103ED00000000000B7C0B3E5D7B2B3C9B9A60D0A58
:103EE00000000000D1A1BFA8B3C9B9A60D0A000007
:103EF000D01A0020B6C1B3F6B5C4CAFDBEDD0D0AA6
:103F000000000000BDF8C8EBD0DDC3DF0D0A0000E3
:103F100010B5FEF78DFEFEF72BFDFEF72DFDBDE87B
:103F200010404120FEF7EEB90006101600061016EC
:103F30000000000000000000010203040607080959
:103F40000000000001020304BFE2C8DDC1BF3A2542
:103F5000642020202020B6D4B1C8B5C8BCB63A2011
:103F6000256420202020B2A8CCD8C2CA3A2020251F
:103F70006420202020616164723A20202564202082
:103F8000202050535F73697A653A20202564000031
:103F9000B03F00080000002044000000C8350008C1
:103FA000F43F0008440000209C1E0000D8350008A3
:103FB0000100000010000000000000000024F400D8
:103FC0000000000000000000FFFFFFFF00000000F5
:103FD00000000000000000FFFFFFFFFFFF1234564B
:103FE000780000FF078029FFFFFFFFFFFE000000B1
:043FF00000000000CD
:040000050800019955
:00000001FF
